{
  "address": "0x72712969B36F0B31aa7900b517D63dD1488E8466",
  "abi": [
    {
      "inputs": [
        {
          "internalType": "address",
          "name": "_owner",
          "type": "address"
        }
      ],
      "stateMutability": "nonpayable",
      "type": "constructor"
    },
    {
      "anonymous": false,
      "inputs": [
        {
          "indexed": true,
          "internalType": "address",
          "name": "setter",
          "type": "address"
        },
        {
          "components": [
            {
              "internalType": "string",
              "name": "tgHash",
              "type": "string"
            },
            {
              "internalType": "string",
              "name": "displayName",
              "type": "string"
            },
            {
              "internalType": "string",
              "name": "description",
              "type": "string"
            },
            {
              "internalType": "string",
              "name": "company",
              "type": "string"
            },
            {
              "internalType": "string",
              "name": "jobTitle",
              "type": "string"
            },
            {
              "internalType": "string",
              "name": "bioUrl",
              "type": "string"
            }
          ],
          "indexed": false,
          "internalType": "struct User",
          "name": "newUser",
          "type": "tuple"
        }
      ],
      "name": "UserChange",
      "type": "event"
    },
    {
      "inputs": [
        {
          "components": [
            {
              "internalType": "string",
              "name": "tgHash",
              "type": "string"
            },
            {
              "internalType": "string",
              "name": "displayName",
              "type": "string"
            },
            {
              "internalType": "string",
              "name": "description",
              "type": "string"
            },
            {
              "internalType": "string",
              "name": "company",
              "type": "string"
            },
            {
              "internalType": "string",
              "name": "jobTitle",
              "type": "string"
            },
            {
              "internalType": "string",
              "name": "bioUrl",
              "type": "string"
            }
          ],
          "internalType": "struct User",
          "name": "_newUser",
          "type": "tuple"
        }
      ],
      "name": "addUser",
      "outputs": [],
      "stateMutability": "payable",
      "type": "function"
    },
    {
      "inputs": [
        {
          "internalType": "uint256",
          "name": "",
          "type": "uint256"
        }
      ],
      "name": "addressArray",
      "outputs": [
        {
          "internalType": "address",
          "name": "",
          "type": "address"
        }
      ],
      "stateMutability": "view",
      "type": "function"
    },
    {
      "inputs": [],
      "name": "numAddresses",
      "outputs": [
        {
          "internalType": "uint256",
          "name": "",
          "type": "uint256"
        }
      ],
      "stateMutability": "view",
      "type": "function"
    },
    {
      "inputs": [],
      "name": "owner",
      "outputs": [
        {
          "internalType": "address",
          "name": "",
          "type": "address"
        }
      ],
      "stateMutability": "view",
      "type": "function"
    },
    {
      "inputs": [
        {
          "components": [
            {
              "internalType": "string",
              "name": "tgHash",
              "type": "string"
            },
            {
              "internalType": "string",
              "name": "displayName",
              "type": "string"
            },
            {
              "internalType": "string",
              "name": "description",
              "type": "string"
            },
            {
              "internalType": "string",
              "name": "company",
              "type": "string"
            },
            {
              "internalType": "string",
              "name": "jobTitle",
              "type": "string"
            },
            {
              "internalType": "string",
              "name": "bioUrl",
              "type": "string"
            }
          ],
          "internalType": "struct User",
          "name": "_modifiedUser",
          "type": "tuple"
        }
      ],
      "name": "updateUser",
      "outputs": [],
      "stateMutability": "payable",
      "type": "function"
    },
    {
      "inputs": [
        {
          "internalType": "string",
          "name": "_displayName",
          "type": "string"
        }
      ],
      "name": "userAddress",
      "outputs": [
        {
          "internalType": "address",
          "name": "",
          "type": "address"
        }
      ],
      "stateMutability": "view",
      "type": "function"
    },
    {
      "inputs": [
        {
          "internalType": "address",
          "name": "",
          "type": "address"
        }
      ],
      "name": "userData",
      "outputs": [
        {
          "internalType": "string",
          "name": "tgHash",
          "type": "string"
        },
        {
          "internalType": "string",
          "name": "displayName",
          "type": "string"
        },
        {
          "internalType": "string",
          "name": "description",
          "type": "string"
        },
        {
          "internalType": "string",
          "name": "company",
          "type": "string"
        },
        {
          "internalType": "string",
          "name": "jobTitle",
          "type": "string"
        },
        {
          "internalType": "string",
          "name": "bioUrl",
          "type": "string"
        }
      ],
      "stateMutability": "view",
      "type": "function"
    },
    {
      "inputs": [
        {
          "internalType": "address",
          "name": "",
          "type": "address"
        }
      ],
      "name": "userList",
      "outputs": [
        {
          "internalType": "bool",
          "name": "",
          "type": "bool"
        }
      ],
      "stateMutability": "view",
      "type": "function"
    },
    {
      "inputs": [],
      "name": "withdraw",
      "outputs": [],
      "stateMutability": "nonpayable",
      "type": "function"
    },
    {
      "stateMutability": "payable",
      "type": "receive"
    }
  ],
  "transactionHash": "0xb7c7ca10f90585382278d1dd2965a13938ba5e48558a6c071460ffa707eb4034",
  "args": [
    "0x0960623D84407156b346fc31Eaca381b31028De6"
  ],
  "numDeployments": 1,
  "solcInputHash": "470396a84057b2530c1021eae81c5b24",
  "bytecode": "0x60a0604052600060035534801561001557600080fd5b5060405161133938038061133983398101604081905261003491610045565b6001600160a01b0316608052610075565b60006020828403121561005757600080fd5b81516001600160a01b038116811461006e57600080fd5b9392505050565b60805161129b61009e600039600081816101800152818161022f0152610295015261129b6000f3fe60806040526004361061008a5760003560e01c80635c9566dc116100595780635c9566dc1461014e5780638da5cb5b1461016e578063c8910913146101a2578063e08bb66f146101d4578063fa86e6da146101e757600080fd5b80630f96cf34146100965780631b4e7bd2146100d35780632f8646d6146101135780633ccfd60b1461013757600080fd5b3661009157005b600080fd5b3480156100a257600080fd5b506100b66100b1366004610c6e565b6101fa565b6040516001600160a01b0390911681526020015b60405180910390f35b3480156100df57600080fd5b506101036100ee366004610c87565b60016020526000908152604090205460ff1681565b60405190151581526020016100ca565b34801561011f57600080fd5b5061012960035481565b6040519081526020016100ca565b34801561014357600080fd5b5061014c610224565b005b34801561015a57600080fd5b506100b6610169366004610d83565b61034e565b34801561017a57600080fd5b506100b67f000000000000000000000000000000000000000000000000000000000000000081565b3480156101ae57600080fd5b506101c26101bd366004610c87565b61047a565b6040516100ca96959493929190610e10565b61014c6101e2366004610e92565b6107de565b61014c6101f5366004610e92565b6109bf565b6002818154811061020a57600080fd5b6000918252602090912001546001600160a01b0316905081565b336001600160a01b037f000000000000000000000000000000000000000000000000000000000000000016146102915760405162461bcd60e51b815260206004820152600d60248201526c2737ba103a34329027bbb732b960991b60448201526064015b60405180910390fd5b60007f00000000000000000000000000000000000000000000000000000000000000006001600160a01b03164760405160006040518083038185875af1925050503d80600081146102fe576040519150601f19603f3d011682016040523d82523d6000602084013e610303565b606091505b505090508061034b5760405162461bcd60e51b81526020600482015260146024820152732330b4b632b2103a379039b2b7321022ba3432b960611b6044820152606401610288565b50565b6000805b6002548110156104715761042b6000806002848154811061037557610375610fb3565b60009182526020808320909101546001600160a01b03168352820192909252604001902060010180546103a790610fc9565b80601f01602080910402602001604051908101604052809291908181526020018280546103d390610fc9565b80156104205780601f106103f557610100808354040283529160200191610420565b820191906000526020600020905b81548152906001019060200180831161040357829003601f168201915b505050505084610ba3565b1561045f576002818154811061044357610443610fb3565b6000918252602090912001546001600160a01b03169392505050565b8061046981611019565b915050610352565b50600092915050565b60006020819052908152604090208054819061049590610fc9565b80601f01602080910402602001604051908101604052809291908181526020018280546104c190610fc9565b801561050e5780601f106104e35761010080835404028352916020019161050e565b820191906000526020600020905b8154815290600101906020018083116104f157829003601f168201915b50505050509080600101805461052390610fc9565b80601f016020809104026020016040519081016040528092919081815260200182805461054f90610fc9565b801561059c5780601f106105715761010080835404028352916020019161059c565b820191906000526020600020905b81548152906001019060200180831161057f57829003601f168201915b5050505050908060020180546105b190610fc9565b80601f01602080910402602001604051908101604052809291908181526020018280546105dd90610fc9565b801561062a5780601f106105ff5761010080835404028352916020019161062a565b820191906000526020600020905b81548152906001019060200180831161060d57829003601f168201915b50505050509080600301805461063f90610fc9565b80601f016020809104026020016040519081016040528092919081815260200182805461066b90610fc9565b80156106b85780601f1061068d576101008083540402835291602001916106b8565b820191906000526020600020905b81548152906001019060200180831161069b57829003601f168201915b5050505050908060040180546106cd90610fc9565b80601f01602080910402602001604051908101604052809291908181526020018280546106f990610fc9565b80156107465780601f1061071b57610100808354040283529160200191610746565b820191906000526020600020905b81548152906001019060200180831161072957829003601f168201915b50505050509080600501805461075b90610fc9565b80601f016020809104026020016040519081016040528092919081815260200182805461078790610fc9565b80156107d45780601f106107a9576101008083540402835291602001916107d4565b820191906000526020600020905b8154815290600101906020018083116107b757829003601f168201915b5050505050905086565b3360009081526001602052604090205460ff1661083d5760405162461bcd60e51b815260206004820152601860248201527f54686973207573657220646f6573206e6f7420657869737400000000000000006044820152606401610288565b6108816040518060400160405280601a81526020017f5570646174696e67207573657220272573272066726f6d202573000000000000815250826020015133610bfd565b6000610890826020015161034e565b90506001600160a01b03811615806108b057506001600160a01b03811633145b6108f55760405162461bcd60e51b81526020600482015260166024820152752ab9b2b93730b6b29020b63932b0b23c902a30b5b2b760511b6044820152606401610288565b336000908152602081905260409020825183919081906109159082611080565b506020820151600182019061092a9082611080565b506040820151600282019061093f9082611080565b50606082015160038201906109549082611080565b50608082015160048201906109699082611080565b5060a0820151600582019061097e9082611080565b50506040513391507fc48b5812dc9916f6d2ba76940173b20d8fed18e795c33edf4cacec494da5b5f5906109b3908590611140565b60405180910390a25050565b610a036040518060400160405280601881526020017f416464696e67207573657220272573272066726f6d2025730000000000000000815250826020015133610bfd565b60006001600160a01b0316610a1b826020015161034e565b6001600160a01b031614610a6a5760405162461bcd60e51b81526020600482015260166024820152752ab9b2b93730b6b29020b63932b0b23c902a30b5b2b760511b6044820152606401610288565b336000908152600160208181526040808420805460ff1916909317909255829052902081518291908190610a9e9082611080565b5060208201516001820190610ab39082611080565b5060408201516002820190610ac89082611080565b5060608201516003820190610add9082611080565b5060808201516004820190610af29082611080565b5060a08201516005820190610b079082611080565b5050600280546001818101835560009283527f405787fa12a823e0f2b7631cc41b3ba8828b3321ca811111fa75cd3aa3bb5ace90910180546001600160a01b03191633179055600380549193509190610b619084906111f8565b909155505060405133907fc48b5812dc9916f6d2ba76940173b20d8fed18e795c33edf4cacec494da5b5f590610b98908490611140565b60405180910390a250565b600081604051602001610bb6919061120b565b6040516020818303038152906040528051906020012083604051602001610bdd919061120b565b604051602081830303815290604052805190602001201490505b92915050565b610c44838383604051602401610c1593929190611227565b60408051601f198184030181529190526020810180516001600160e01b03166395ed019560e01b179052610c49565b505050565b61034b8160006a636f6e736f6c652e6c6f679050600080835160208501845afa505050565b600060208284031215610c8057600080fd5b5035919050565b600060208284031215610c9957600080fd5b81356001600160a01b0381168114610cb057600080fd5b9392505050565b634e487b7160e01b600052604160045260246000fd5b60405160c0810167ffffffffffffffff81118282101715610cf057610cf0610cb7565b60405290565b600082601f830112610d0757600080fd5b813567ffffffffffffffff80821115610d2257610d22610cb7565b604051601f8301601f19908116603f01168101908282118183101715610d4a57610d4a610cb7565b81604052838152866020858801011115610d6357600080fd5b836020870160208301376000602085830101528094505050505092915050565b600060208284031215610d9557600080fd5b813567ffffffffffffffff811115610dac57600080fd5b610db884828501610cf6565b949350505050565b60005b83811015610ddb578181015183820152602001610dc3565b50506000910152565b60008151808452610dfc816020860160208601610dc0565b601f01601f19169290920160200192915050565b60c081526000610e2360c0830189610de4565b8281036020840152610e358189610de4565b90508281036040840152610e498188610de4565b90508281036060840152610e5d8187610de4565b90508281036080840152610e718186610de4565b905082810360a0840152610e858185610de4565b9998505050505050505050565b600060208284031215610ea457600080fd5b813567ffffffffffffffff80821115610ebc57600080fd5b9083019060c08286031215610ed057600080fd5b610ed8610ccd565b823582811115610ee757600080fd5b610ef387828601610cf6565b825250602083013582811115610f0857600080fd5b610f1487828601610cf6565b602083015250604083013582811115610f2c57600080fd5b610f3887828601610cf6565b604083015250606083013582811115610f5057600080fd5b610f5c87828601610cf6565b606083015250608083013582811115610f7457600080fd5b610f8087828601610cf6565b60808301525060a083013582811115610f9857600080fd5b610fa487828601610cf6565b60a08301525095945050505050565b634e487b7160e01b600052603260045260246000fd5b600181811c90821680610fdd57607f821691505b602082108103610ffd57634e487b7160e01b600052602260045260246000fd5b50919050565b634e487b7160e01b600052601160045260246000fd5b60006001820161102b5761102b611003565b5060010190565b601f821115610c4457600081815260208120601f850160051c810160208610156110595750805b601f850160051c820191505b8181101561107857828155600101611065565b505050505050565b815167ffffffffffffffff81111561109a5761109a610cb7565b6110ae816110a88454610fc9565b84611032565b602080601f8311600181146110e357600084156110cb5750858301515b600019600386901b1c1916600185901b178555611078565b600085815260208120601f198616915b82811015611112578886015182559484019460019091019084016110f3565b50858210156111305787850151600019600388901b60f8161c191681555b5050505050600190811b01905550565b602081526000825160c0602084015261115c60e0840182610de4565b90506020840151601f198085840301604086015261117a8383610de4565b925060408601519150808584030160608601526111978383610de4565b925060608601519150808584030160808601526111b48383610de4565b925060808601519150808584030160a08601526111d18383610de4565b925060a08601519150808584030160c0860152506111ef8282610de4565b95945050505050565b80820180821115610bf757610bf7611003565b6000825161121d818460208701610dc0565b9190910192915050565b60608152600061123a6060830186610de4565b828103602084015261124c8186610de4565b91505060018060a01b038316604083015294935050505056fea26469706673582212203a8d4f7b86077c8737923b407356b15a80d31a5a68cd855379bfef27a7bd1c7564736f6c63430008140033",
  "devdoc": {
    "author": "BuidlGuidl",
    "kind": "dev",
    "methods": {
      "addUser((string,string,string,string,string,string))": {
        "params": {
          "_newUser": "(User memory) - new greeting to save on the contract"
        }
      },
      "updateUser((string,string,string,string,string,string))": {
        "params": {
          "_modifiedUser": "(User memory) - new greeting to save on the contract"
        }
      },
      "userAddress(string)": {
        "params": {
          "_displayName": "(string memory) - new greeting to save on the contract"
        }
      }
    },
    "version": 1
  },
  "userdoc": {
    "kind": "user",
    "methods": {
      "addUser((string,string,string,string,string,string))": {
        "notice": "Function that allows anyone to change the state variable \"greeting\" of the contract and increase the counters"
      },
      "updateUser((string,string,string,string,string,string))": {
        "notice": "Function that allows anyone to change the state variable \"greeting\" of the contract and increase the counters"
      },
      "userAddress(string)": {
        "notice": "Function that allows anyone to change the state variable \"greeting\" of the contract and increase the counters"
      },
      "withdraw()": {
        "notice": "Function that allows the owner to withdraw all the Ether in the contract The function can only be called by the owner of the contract as defined by the isOwner modifier"
      }
    },
    "notice": "A smart contract that allows changing a state variable of the contract and tracking the changes It also allows the owner to withdraw the Ether in the contract",
    "version": 1
  },
  "storageLayout": {
    "storage": [
      {
        "astId": 23,
        "contract": "contracts/YourContract.sol:YourContract",
        "label": "userData",
        "offset": 0,
        "slot": "0",
        "type": "t_mapping(t_address,t_struct(User)15_storage)"
      },
      {
        "astId": 27,
        "contract": "contracts/YourContract.sol:YourContract",
        "label": "userList",
        "offset": 0,
        "slot": "1",
        "type": "t_mapping(t_address,t_bool)"
      },
      {
        "astId": 30,
        "contract": "contracts/YourContract.sol:YourContract",
        "label": "addressArray",
        "offset": 0,
        "slot": "2",
        "type": "t_array(t_address)dyn_storage"
      },
      {
        "astId": 33,
        "contract": "contracts/YourContract.sol:YourContract",
        "label": "numAddresses",
        "offset": 0,
        "slot": "3",
        "type": "t_uint256"
      }
    ],
    "types": {
      "t_address": {
        "encoding": "inplace",
        "label": "address",
        "numberOfBytes": "20"
      },
      "t_array(t_address)dyn_storage": {
        "base": "t_address",
        "encoding": "dynamic_array",
        "label": "address[]",
        "numberOfBytes": "32"
      },
      "t_bool": {
        "encoding": "inplace",
        "label": "bool",
        "numberOfBytes": "1"
      },
      "t_mapping(t_address,t_bool)": {
        "encoding": "mapping",
        "key": "t_address",
        "label": "mapping(address => bool)",
        "numberOfBytes": "32",
        "value": "t_bool"
      },
      "t_mapping(t_address,t_struct(User)15_storage)": {
        "encoding": "mapping",
        "key": "t_address",
        "label": "mapping(address => struct User)",
        "numberOfBytes": "32",
        "value": "t_struct(User)15_storage"
      },
      "t_string_storage": {
        "encoding": "bytes",
        "label": "string",
        "numberOfBytes": "32"
      },
      "t_struct(User)15_storage": {
        "encoding": "inplace",
        "label": "struct User",
        "members": [
          {
            "astId": 4,
            "contract": "contracts/YourContract.sol:YourContract",
            "label": "tgHash",
            "offset": 0,
            "slot": "0",
            "type": "t_string_storage"
          },
          {
            "astId": 6,
            "contract": "contracts/YourContract.sol:YourContract",
            "label": "displayName",
            "offset": 0,
            "slot": "1",
            "type": "t_string_storage"
          },
          {
            "astId": 8,
            "contract": "contracts/YourContract.sol:YourContract",
            "label": "description",
            "offset": 0,
            "slot": "2",
            "type": "t_string_storage"
          },
          {
            "astId": 10,
            "contract": "contracts/YourContract.sol:YourContract",
            "label": "company",
            "offset": 0,
            "slot": "3",
            "type": "t_string_storage"
          },
          {
            "astId": 12,
            "contract": "contracts/YourContract.sol:YourContract",
            "label": "jobTitle",
            "offset": 0,
            "slot": "4",
            "type": "t_string_storage"
          },
          {
            "astId": 14,
            "contract": "contracts/YourContract.sol:YourContract",
            "label": "bioUrl",
            "offset": 0,
            "slot": "5",
            "type": "t_string_storage"
          }
        ],
        "numberOfBytes": "192"
      },
      "t_uint256": {
        "encoding": "inplace",
        "label": "uint256",
        "numberOfBytes": "32"
      }
    }
  }
}